:0F0C12007DA57C06ED1D70011C144C70F7DFF101
:010C210022B0
:100BEF007F057DA57C06ED1D70011C144C70F7DF91
:010BFF00F104
:010C000022D1
:100C01007F087E00EF1F70011E144E60030080F408
:010C110022C0
:030C6600013A0050
:0605F9008B198A1A891B10
:1005FF00EF64016003020790753101F532F533F5B1
:10060F0034F535F536F5377F287863E4F608DFFCE7
:10061F007F28783BE4F608DFFCAB19AA1AA91B1256
:10062F00043DD394C040037F012290000A12045668
:10063F00B40104D2BC8002C2BC12043DFFE5985441
:10064F003F4FF598EF64C06008EF64406003020706
:10065F00149000021205A37F007E607D547C00126F
:10066F0004BF8F1F8E1E8D1D8C1CE4FFFE7D01FCB1
:10067F00AB1FAA1EA91DA81CC312055F40037F0252
:10068F0022C3E4951FF51FE4951EF51E7401951DF9
:10069F00F51DE4951CF51CAB19AA1AA91B900001B6
:1006AF00120456FB6401702CC28E538EFE5389BF09
:1006BF005389CF438E40AF1FAE1EAD1DAC1C7808C3
:1006CF001205708F8D851F8BC2AB5389BF538FFD62
:1006DF00D28E8065EB64027029538EEF438E0153E7
:1006EF008EF7438E04AF1FAE1EAD1DAC1C780812E3
:1006FF0005708FD6851FD753AFFB538EF7438E10E0
:10070F0080377F0222AB19AA1AA91B12043DFF7072
:10071F0013900008120456B40105438E20801A531B
:10072F008EDF8015EFB48011900008120456B401CB
:10073F0005438780800353877FAB19AA1AA91B90A3
:10074F000009120456B40104D2AC8002C2AC90006E
:10075F0007120456B40104D29C8002C29C90000B75
:10076F0012045654C0FFE5A2543F4FF5A290000C5F
:10077F00120456B4010543971080035397EF7F007F
:03078F00227F03C3
:010792002244
:1000030074632533F8A6070533E533C39428400307
:0D001300E4F533E5347005753401D299220F
:100BDC0012043DFF600C120003740129F9E43AFA87
:030BEC0080EE2276
:0300230002096867
:10096800C0E0C0D075D000C000C006C00730984FA6
:10097800C298E5377049783AE6602AAF99AE3505EE
:1009880035743B2EF8EFF664F77034753502783A13
:10099800F608F6783DE664A1702508E6B4F72078F5
:1009A800397601801A783CA69918E6B4F00C08E666
:1009B800B40B07753502783A7601783CE618F630BC
:1009C8009921C299E5326533601674632532F8E6D9
:1009D800F5990532E532C394284008753200800342
:0E09E800753400D007D006D000D0D0D0E03259
:100B4C00750C40750D027511007510C2750F01758D
:100B5C000E00751301E4F514751501F516F517F56E
:0B0B6C0018FB7A00790C7F010205F9EC
:1008BB00E47839F6120B4C120C3FD2AF7F14120CAA
:1008CB0012120AF5AC23AD24EC120229C004C005A8
:1008DB00C006C007AC21AD22EC1202298F138E1279
:1008EB008D118C10D007D006D005D004120A827B54
:1008FB00E07A2E7965784212011EE4FBFA7934789E
:10090B004312002D8F0B8E0A8D098C087839E66403
:10091B00017042F67FF01200037F0B1200037F0180
:10092B00120003AF0BAE0AAD09AC08120262EF78EE
:10093B0007CEC313CE13D8F9547FFF120003AF0BAE
:10094B00AE0AAD09AC08120262EF547FFF1200032E
:0D095B007FF71200037F05120C120208CC7A
:0F0C2200D290D291120C01C290120C01C29122F9
:0C0C5A00C290D291120C01D290020C0149
:0E0C3100A2009290D291120C01C291020C010D
:0D0C4D00D291120C01A290C291120C012252
:020BA0008F0EB6
:100BA200E4F50FE50E25E0F50E9290D291120C01BC
:100BB200C291120C01050FE50FC3940840E5020C27
:010BC2004DE5
:100B7700E4F50ED290F50DE50E25E0F50ED29112B3
:100B87000C01A290E433420EC291120C01050DE54F
:080B97000DC3940840E1AF0E0C
:010B9F002233
:100BC3008F0C8D0D120C227F3C120BA0AF0C120B5D
:090BD300A0AF0D120BA0020C5A98
:100AF500120C227F3C120BA07F03120BA0120C22BA
:100B05007F3D120BA0E4F50C120B777429250CF828
:100B1500A607E50CB40604D2008002C200120C310F
:100B2500050CE50CC3940740DF120C5AE529F521A5
:100B3500E52AF522E52DF523E52EF524E52BF5250A
:070B4500E52CF526020BEF81
:0E0C3F00E4FD7F02120BC37DE07F01020BC3B8
:100026000202CEE86480F8E933E83360110460F038
:10003600ED33EC337009E8FCE9FDEAFEEBFF220440
:1000460060DED3EB9FEA9EE99DE8C2E78CF0C2F73B
:1000560095F0400CE8CCF8E9CDF9EACEFAEBCFFB07
:1000660012029985D0F05804700320D5B3E80470C5
:10007600075002B2D50202D892D5EC0460F7E4CC60
:10008600C0E0C398F8603B94186008400DD0E0FBD0
:100096000202B0E4FBFAC9FC8028E830E406E4C9B1
:1000A600FBE4CAFCE830E305E4C9CACBFCE8540724
:1000B6006010F8C3E913F9EA13FAEB13FBEC13FC2F
:1000C600D8F130F52FC3E49CFCEF9BFFEE9AFEEDD2
:1000D60099FDD0E0FBEF4E4D4C701222DB0302027D
:1000E600D5EC2CFCEF33FFEE33FEED33FDED30E7C0
:1000F600EB0202B0EF2BFFEE3AFEED39FDD0E0FB4E
:1001060050130BBB00030202D8ED13FDEE13FEEFF6
:0801160013FFEC13FC0202B020
:10011E00EC4D6011E8497017ED33EC3304600DE4DB
:10012E00FCFFFEFD22E933E8330470F80202CE1222
:10013E00029958046009E4CC248150062850090223
:10014E0002D82840030202D5C0E0EB4A7044B980C1
:10015E0006D0E0FB0202C4EF4E701CBD8008EBFF20
:10016E00EAFEE9FD80EBE98DF0A4FEE5F002020760
:10017E00E9CDF9EAFEEBFFEF89F0A4FCE5F0CE89BC
:10018E00F0A42EFFE435F0CD89F0A42DFEE435F079
:10019E008067EF4E7005BD80D780C3EF8BF0A4ACA7
:1001AE00F0EE8BF0A42CFCE435F0F8EF8AF0A42CE2
:1001BE00E5F038FCE433CB8DF0A42CFCE5F03BF8F5
:1001CE00EE8AF0A42CFCE5F038F8E433CF89F0A4E5
:1001DE002CFCE5F038CF3400CE89F0A42FFFE5F0EB
:1001EE003EFEE433C98DF0A42EFEE5F039CD8AF043
:1001FE00A42FFFE5F03EFEE43DFD33D0E0FB5007BB
:10020E000BBB000F0202D8EC2CFCEF33FFEE33FEDB
:06021E00ED33FD0202B009
:1002240075F020800E75F010800575F0087D007E55
:10023400007F003392D530D503120551EC334010C2
:10024400EF33FFEE33FEED33FDEC33FCD5F0ED225E
:0E025400E5F0247EA2D513CC92E7CDCEFF229A
:10026200EDD2E7CD33EC3392D524814006E4FFFE94
:10027200FDFC22FCE4CFCECDCC24E0501174FF80F3
:10028200EDC3CC13CCCD13CDCE13CECF13CF047090
:07029200F030D5DE0205513A
:100A82008F0F8E0E8D0D8C0CAB13AA12A911A8100C
:100A92001202E61207B38F0F8E0E8D0D8C0CE5102D
:100AA20030E747ECC0E0EDC0E0EEC0E0EFC0E0E4CC
:100AB200FFFEFDFCAB0FAA0EA90DA80C1203837B4F
:100AC200DB600250087A0F7949784080067A0F7904
:100AD2004978C0D0E0FFD0E0FED0E0FDD0E0FC12CB
:100AE200002D8F0F8E0E8D0D8C0CAF0FAE0EAD0D37
:030AF200AC0C2227
:10029900E9D2E7C933E833F892D5EDD2E7CD33ECAB
:0702A90033FC5002B2D52224
:1002B000EC30E7100FBF000C0EBE00080DBD0004AF
:1002C0000BEB6014A2D5EB13FCED92E7FD2274FF5B
:1002D000FCFDFEFF22E480F8A2D574FF13FC7D80B4
:0302E000E480EFC8
:1002E3000202D8EC5D046005E8590470030202CEF3
:1002F300120299580460F6EC4860F2EC7004FDFEBB
:10030300FF22C860DB2481C85009C39860025006ED
:100313000202D59850CAF582E9294B4A7005AB828F
:100323000202C475F0007C1A7880C3EF9BEE9AED4D
:1003330099400DC3EF9BFFEE9AFEED99FDE842F065
:10034300DC23ACF0D0E0FFD0E0FED0E0FDAB8220B8
:10035300E7101BEB60BAEC2CFCEF33FFEE33FEED42
:1003630033FD0202B0E803F830E705C0F075F00092
:10037300EF2FFFEE33FEED33FD40B830E7C280AA26
:1003830074F8CC6480CCC86480C8F582046043C32D
:10039300EB9FF5F0EA9E42F0E99D42F0E89C45F0C0
:1003A30060305018E5825FFFE582F42B5582FB50E5
:1003B300210ABA001D09B90019088016E5825BFB02
:1003C300E582F42F5582FF50090EBE00050DBD00D6
:1003D300010CC3EB9FF5F0EA9E42F0E99D42F0E881
:0D03E3009C45F06007CC4820E701B3EC22F8
:10079300BE1249253E4CCCCDBEAAAAAB3F80000079
:1007A3003E7ADBB03EED63383F24BC7D3F490FDB2F
:1007B300ED33ECC2E7CC339200B4FF13ED547F600A
:1007C300030202CE7FDB7E0F7DC97C3F0208AEC2EF
:1007D30001C3947F401E7007EDD2E794904015EF5C
:1007E300FBEEFAEDF9ECF87F007E007D807C3F1292
:1007F30002E6D201ED33EC33248430E705E4C0E0B4
:10080300806D04FAEDD2E754F0C333DAFD540734B4
:10081300002323C0E0CCC0E0F8EDC0E0F9EEC0E077
:10082300FAEFC0E0FBE412022EEC24FEFC8C148DE4
:10083300158E168F1712011E7B007A007980783F80
:1008430012002DECC514B2E7FCEDC515FDEEC5167F
:10085300FEEFC517FFD0E0FBD0E0FAD0E0F9D0E01F
:10086300F812002DA814A915AA16AB171202E68CCC
:10087300148D158E168F1790079374031203F0A827
:1008830014A915AA16AB1712011ED0E0600F249FFE
:10089300F582E43407F58312059312002D30010B22
:1008A3007BDB7A0F79C978BF12002DED33EC33600F
:0808B30006ECA20092E7FC2212
:1003F000C0E0EFFBEEFAEDF9ECF812011ED0E0F5EB
:10040000F0EFFBEEFAEDF9ECF8120583A3A3A3A33A
:10041000E8C0E0E9C0E0EAC0E0EBC0E0C0F01201F3
:100420001E120593A3A3A3A312002DD0F0D0E0FBCE
:0D043000D0E0FAD0E0F9D0E0F8D5F0D42209
:030000000209F6FC
:0C09F600787FE4F6D8FD75818A020A3D86
:10043D00BB010689828A83E0225002E722BBFE02BD
:09044D00E32289828A83E49322F0
:10045600BB010CE58229F582E5833AF583E022505B
:1004660006E92582F8E622BBFE06E92582F8E222A5
:0D047600E58229F582E5833AF583E49322BF
:1004830075F008758200EF2FFFEE33FECD33CDCC30
:1004930033CCC58233C5829BED9AEC99E5829840B3
:1004A3000CF582EE9BFEED9AFDEC99FC0FD5F0D690
:1004B300E4CEFBE4CDFAE4CCF9A88222B800C1B9BA
:1004C3000059BA002DEC8BF084CFCECDFCE5F0CBF8
:1004D300F97818EF2FFFEE33FEED33FDEC33FCEB31
:1004E30033FB10D703994004EB99FB0FD8E5E4F9EC
:1004F300FA227818EF2FFFEE33FEED33FDEC33FCD9
:10050300C933C910D7059BE99A4007EC9BFCE99ACC
:10051300F90FD8E0E4C9FAE4CCFB2275F010EF2F11
:10052300FFEE33FEED33FDCC33CCC833C810D70711
:100533009BEC9AE899400AED9BFDEC9AFCE899F84C
:0E0543000FD5F0DAE4CDFBE4CCFAE4C8F922DF
:0E055100C3E49FFFE49EFEE49DFDE49CFC22BB
:10055F00EB9FF5F0EA9E42F0E99D42F0E89C45F0F2
:01056F002269
:10057000E8600FECC313FCED13FDEE13FEEF13FF69
:03058000D8F1228D
:10058300E493FC740193FD740293FE740393FF22BE
:10059300E493F8740193F9740293FA740393FB22BE
:1005A300BB010DE58229F582E5833AF5830205E077
:1005B3005007E92582F80205D3BBFE07E92582F837
:1005C3000205ECE58229F582E5833AF5830205937A
:100A02000208BBE493A3F8E493A34003F68001F247
:100A120008DFF48029E493A3F85407240CC8C333F5
:100A2200C4540F4420C8834004F456800146F6DFC4
:100A3200E4800B0102040810204080900C66E47EE2
:100A4200019360BCA3FF543F30E509541FFEE493B9
:100A5200A360010ECF54C025E060A840B8E493A380
:100A6200FAE493A3F8E493A3C8C582C8CAC583CAAB
:100A7200F0A3C8C582C8CAC583CADFE9DEE780BE63
:010C6900008A
:0D05D300E6FB08E6F908E6FA08E6CBF82298
:0C05E000E0F8A3E0F9A3E0FAA3E0FB229E
:0D05EC00E2FB08E2F908E2FA08E2CBF8228F
:00000001FF
